{
  "contractName": "Escrow",
  "abi": [
    {
      "constant": true,
      "inputs": [
        {
          "name": "",
          "type": "uint256"
        }
      ],
      "name": "jobs",
      "outputs": [
        {
          "name": "title",
          "type": "bytes32"
        },
        {
          "name": "isCompleted",
          "type": "bool"
        },
        {
          "name": "owner",
          "type": "address"
        },
        {
          "name": "executer",
          "type": "address"
        },
        {
          "name": "doesExist",
          "type": "bool"
        },
        {
          "name": "isDepositedOwner",
          "type": "bool"
        },
        {
          "name": "isDepositedExecuter",
          "type": "bool"
        },
        {
          "name": "budget",
          "type": "uint256"
        }
      ],
      "payable": false,
      "stateMutability": "view",
      "type": "function"
    },
    {
      "constant": true,
      "inputs": [
        {
          "name": "",
          "type": "address"
        }
      ],
      "name": "balanceOf",
      "outputs": [
        {
          "name": "",
          "type": "uint256"
        }
      ],
      "payable": false,
      "stateMutability": "view",
      "type": "function"
    },
    {
      "inputs": [],
      "payable": false,
      "stateMutability": "nonpayable",
      "type": "constructor"
    },
    {
      "anonymous": false,
      "inputs": [
        {
          "indexed": true,
          "name": "_from",
          "type": "address"
        },
        {
          "indexed": true,
          "name": "_to",
          "type": "address"
        },
        {
          "indexed": false,
          "name": "_title",
          "type": "bytes32"
        }
      ],
      "name": "Awarded",
      "type": "event"
    },
    {
      "anonymous": false,
      "inputs": [
        {
          "indexed": true,
          "name": "_from",
          "type": "address"
        },
        {
          "indexed": true,
          "name": "_to",
          "type": "address"
        },
        {
          "indexed": false,
          "name": "_value",
          "type": "uint256"
        }
      ],
      "name": "Transfer",
      "type": "event"
    },
    {
      "anonymous": false,
      "inputs": [
        {
          "indexed": true,
          "name": "_owner",
          "type": "address"
        },
        {
          "indexed": true,
          "name": "_executer",
          "type": "address"
        },
        {
          "indexed": false,
          "name": "_jobId",
          "type": "uint256"
        }
      ],
      "name": "EscrowCompleted",
      "type": "event"
    },
    {
      "anonymous": false,
      "inputs": [
        {
          "indexed": true,
          "name": "_owner",
          "type": "address"
        },
        {
          "indexed": false,
          "name": "_title",
          "type": "bytes32"
        }
      ],
      "name": "JobComplete",
      "type": "event"
    },
    {
      "anonymous": false,
      "inputs": [
        {
          "indexed": true,
          "name": "_from",
          "type": "address"
        },
        {
          "indexed": false,
          "name": "_jobId",
          "type": "uint256"
        }
      ],
      "name": "Cancel",
      "type": "event"
    },
    {
      "constant": false,
      "inputs": [
        {
          "name": "_awardee",
          "type": "address"
        },
        {
          "name": "_title",
          "type": "bytes32"
        },
        {
          "name": "_contractValue",
          "type": "uint256"
        }
      ],
      "name": "createContract",
      "outputs": [
        {
          "name": "success",
          "type": "bool"
        }
      ],
      "payable": false,
      "stateMutability": "nonpayable",
      "type": "function"
    },
    {
      "constant": true,
      "inputs": [
        {
          "name": "_owner",
          "type": "address"
        }
      ],
      "name": "accountBalance",
      "outputs": [
        {
          "name": "",
          "type": "uint256"
        }
      ],
      "payable": false,
      "stateMutability": "view",
      "type": "function"
    },
    {
      "constant": false,
      "inputs": [
        {
          "name": "_value",
          "type": "uint256"
        },
        {
          "name": "_jobId",
          "type": "uint256"
        }
      ],
      "name": "deposit",
      "outputs": [
        {
          "name": "",
          "type": "bool"
        }
      ],
      "payable": false,
      "stateMutability": "nonpayable",
      "type": "function"
    },
    {
      "constant": false,
      "inputs": [
        {
          "name": "_jobId",
          "type": "uint256"
        }
      ],
      "name": "confirmJobCompleted",
      "outputs": [
        {
          "name": "success",
          "type": "bool"
        }
      ],
      "payable": false,
      "stateMutability": "nonpayable",
      "type": "function"
    },
    {
      "constant": false,
      "inputs": [
        {
          "name": "_jobId",
          "type": "uint256"
        }
      ],
      "name": "completePayment",
      "outputs": [
        {
          "name": "success",
          "type": "bool"
        }
      ],
      "payable": false,
      "stateMutability": "nonpayable",
      "type": "function"
    },
    {
      "constant": false,
      "inputs": [
        {
          "name": "_jobId",
          "type": "uint256"
        }
      ],
      "name": "cancelContract",
      "outputs": [
        {
          "name": "success",
          "type": "bool"
        }
      ],
      "payable": false,
      "stateMutability": "nonpayable",
      "type": "function"
    },
    {
      "constant": false,
      "inputs": [],
      "name": "endEscrowTransaction",
      "outputs": [],
      "payable": false,
      "stateMutability": "nonpayable",
      "type": "function"
    }
  ],
  "bytecode": "0x60606040526000600155341561001457600080fd5b336000806101000a81548173ffffffffffffffffffffffffffffffffffffffff021916908373ffffffffffffffffffffffffffffffffffffffff160217905550611be2806100636000396000f300606060405260043610610099576000357c0100000000000000000000000000000000000000000000000000000000900463ffffffff168063180aedf31461009e57806328047450146101765780634f01c6f2146101b15780634ff34abe146101ec57806370a08231146102275780639cc437ba14610274578063d294cb0f146102db578063d871f03414610328578063e2bbb1581461033d575b600080fd5b34156100a957600080fd5b6100bf6004808035906020019091905050610381565b604051808960001916600019168152602001881515151581526020018773ffffffffffffffffffffffffffffffffffffffff1673ffffffffffffffffffffffffffffffffffffffff1681526020018673ffffffffffffffffffffffffffffffffffffffff1673ffffffffffffffffffffffffffffffffffffffff1681526020018515151515815260200184151515158152602001831515151581526020018281526020019850505050505050505060405180910390f35b341561018157600080fd5b610197600480803590602001909190505061043d565b604051808215151515815260200191505060405180910390f35b34156101bc57600080fd5b6101d26004808035906020019091905050610d9e565b604051808215151515815260200191505060405180910390f35b34156101f757600080fd5b61020d6004808035906020019091905050610f02565b604051808215151515815260200191505060405180910390f35b341561023257600080fd5b61025e600480803573ffffffffffffffffffffffffffffffffffffffff16906020019091905050611050565b6040518082815260200191505060405180910390f35b341561027f57600080fd5b6102c1600480803573ffffffffffffffffffffffffffffffffffffffff1690602001909190803560001916906020019091908035906020019091905050611068565b604051808215151515815260200191505060405180910390f35b34156102e657600080fd5b610312600480803573ffffffffffffffffffffffffffffffffffffffff16906020019091905050611334565b6040518082815260200191505060405180910390f35b341561033357600080fd5b61033b611355565b005b341561034857600080fd5b61036760048080359060200190919080359060200190919050506113ea565b604051808215151515815260200191505060405180910390f35b60036020528060005260406000206000915090508060000154908060010160009054906101000a900460ff16908060010160019054906101000a900473ffffffffffffffffffffffffffffffffffffffff16908060020160009054906101000a900473ffffffffffffffffffffffffffffffffffffffff16908060020160149054906101000a900460ff16908060020160159054906101000a900460ff16908060020160169054906101000a900460ff16908060030154905088565b600080600080843373ffffffffffffffffffffffffffffffffffffffff166003600083815260200190815260200160002060010160019054906101000a900473ffffffffffffffffffffffffffffffffffffffff1673ffffffffffffffffffffffffffffffffffffffff16148061051557503373ffffffffffffffffffffffffffffffffffffffff166003600083815260200190815260200160002060020160009054906101000a900473ffffffffffffffffffffffffffffffffffffffff1673ffffffffffffffffffffffffffffffffffffffff16145b151561052057600080fd5b85600115156003600083815260200190815260200160002060020160149054906101000a900460ff16151514151561055757600080fd5b6003600088815260200190815260200160002060020160159054906101000a900460ff1694506003600088815260200190815260200160002060020160169054906101000a900460ff169350600115158515151480156105bb575060011515841515145b156108cd5760028060003073ffffffffffffffffffffffffffffffffffffffff1673ffffffffffffffffffffffffffffffffffffffff1681526020019081526020016000205481151561060a57fe5b04925061068c60026000600360008b815260200190815260200160002060010160019054906101000a900473ffffffffffffffffffffffffffffffffffffffff1673ffffffffffffffffffffffffffffffffffffffff1673ffffffffffffffffffffffffffffffffffffffff16815260200190815260200160002054846118a8565b60026000600360008b815260200190815260200160002060010160019054906101000a900473ffffffffffffffffffffffffffffffffffffffff1673ffffffffffffffffffffffffffffffffffffffff1673ffffffffffffffffffffffffffffffffffffffff1681526020019081526020016000208190555061078460026000600360008b815260200190815260200160002060020160009054906101000a900473ffffffffffffffffffffffffffffffffffffffff1673ffffffffffffffffffffffffffffffffffffffff1673ffffffffffffffffffffffffffffffffffffffff16815260200190815260200160002054846118a8565b60026000600360008b815260200190815260200160002060020160009054906101000a900473ffffffffffffffffffffffffffffffffffffffff1673ffffffffffffffffffffffffffffffffffffffff1673ffffffffffffffffffffffffffffffffffffffff16815260200190815260200160002081905550610885600260003073ffffffffffffffffffffffffffffffffffffffff1673ffffffffffffffffffffffffffffffffffffffff16815260200190815260200160002054600260003073ffffffffffffffffffffffffffffffffffffffff1673ffffffffffffffffffffffffffffffffffffffff168152602001908152602001600020546118c4565b600260003073ffffffffffffffffffffffffffffffffffffffff1673ffffffffffffffffffffffffffffffffffffffff16815260200190815260200160002081905550610d13565b600115158515151480156108e5575060001515841515145b15610af1576109a860026000600360008b815260200190815260200160002060010160019054906101000a900473ffffffffffffffffffffffffffffffffffffffff1673ffffffffffffffffffffffffffffffffffffffff1673ffffffffffffffffffffffffffffffffffffffff16815260200190815260200160002054600260003073ffffffffffffffffffffffffffffffffffffffff1673ffffffffffffffffffffffffffffffffffffffff168152602001908152602001600020546118a8565b60026000600360008b815260200190815260200160002060010160019054906101000a900473ffffffffffffffffffffffffffffffffffffffff1673ffffffffffffffffffffffffffffffffffffffff1673ffffffffffffffffffffffffffffffffffffffff16815260200190815260200160002081905550610aa9600260003073ffffffffffffffffffffffffffffffffffffffff1673ffffffffffffffffffffffffffffffffffffffff16815260200190815260200160002054600260003073ffffffffffffffffffffffffffffffffffffffff1673ffffffffffffffffffffffffffffffffffffffff168152602001908152602001600020546118c4565b600260003073ffffffffffffffffffffffffffffffffffffffff1673ffffffffffffffffffffffffffffffffffffffff16815260200190815260200160002081905550610d12565b60001515851515148015610b09575060011515841515145b15610d1157610bcc60026000600360008b815260200190815260200160002060020160009054906101000a900473ffffffffffffffffffffffffffffffffffffffff1673ffffffffffffffffffffffffffffffffffffffff1673ffffffffffffffffffffffffffffffffffffffff16815260200190815260200160002054600260003073ffffffffffffffffffffffffffffffffffffffff1673ffffffffffffffffffffffffffffffffffffffff168152602001908152602001600020546118a8565b60026000600360008b815260200190815260200160002060020160009054906101000a900473ffffffffffffffffffffffffffffffffffffffff1673ffffffffffffffffffffffffffffffffffffffff1673ffffffffffffffffffffffffffffffffffffffff16815260200190815260200160002081905550610ccd600260003073ffffffffffffffffffffffffffffffffffffffff1673ffffffffffffffffffffffffffffffffffffffff16815260200190815260200160002054600260003073ffffffffffffffffffffffffffffffffffffffff1673ffffffffffffffffffffffffffffffffffffffff168152602001908152602001600020546118c4565b600260003073ffffffffffffffffffffffffffffffffffffffff1673ffffffffffffffffffffffffffffffffffffffff168152602001908152602001600020819055505b5b5b60006003600089815260200190815260200160002060020160146101000a81548160ff0219169083151502179055503373ffffffffffffffffffffffffffffffffffffffff167f27f83af92b39768b17fe0c8d6922452702717efb8626d97e7a754e0b27d4f6d2886040518082815260200191505060405180910390a2600195505050505050919050565b6000806003600084815260200190815260200160002060010160019054906101000a900473ffffffffffffffffffffffffffffffffffffffff1673ffffffffffffffffffffffffffffffffffffffff163373ffffffffffffffffffffffffffffffffffffffff16141515610e1157600080fd5b600260003073ffffffffffffffffffffffffffffffffffffffff1673ffffffffffffffffffffffffffffffffffffffff168152602001908152602001600020549050610e5d83826118dd565b6003600084815260200190815260200160002060020160009054906101000a900473ffffffffffffffffffffffffffffffffffffffff1673ffffffffffffffffffffffffffffffffffffffff163073ffffffffffffffffffffffffffffffffffffffff167fddf252ad1be2c89b69c2b068fc378daa952ba7f163c4a11628f55a4df523b3ef836040518082815260200191505060405180910390a36001915050919050565b600081600115156003600083815260200190815260200160002060020160149054906101000a900460ff161515141515610f3b57600080fd5b6003600084815260200190815260200160002060010160019054906101000a900473ffffffffffffffffffffffffffffffffffffffff1673ffffffffffffffffffffffffffffffffffffffff163373ffffffffffffffffffffffffffffffffffffffff16141515610fab57600080fd5b60016003600085815260200190815260200160002060010160006101000a81548160ff0219169083151502179055503373ffffffffffffffffffffffffffffffffffffffff167fbdb951ec04e63e49f1e497bfe93495aa6384b8465d7f174f8399e38b0925611a600360008681526020019081526020016000206000015460405180826000191660001916815260200191505060405180910390a26001915050919050565b60026020528060005260406000206000915090505481565b60008060003391503373ffffffffffffffffffffffffffffffffffffffff168673ffffffffffffffffffffffffffffffffffffffff16141515156110ab57600080fd5b8173ffffffffffffffffffffffffffffffffffffffff163184111580156110e957508573ffffffffffffffffffffffffffffffffffffffff16318411155b15156110f457600080fd5b600180600082825401925050819055905061010060405190810160405280866000191681526020016000151581526020013373ffffffffffffffffffffffffffffffffffffffff1681526020018773ffffffffffffffffffffffffffffffffffffffff16815260200160011515815260200160001515815260200160001515815260200185815250600360008381526020019081526020016000206000820151816000019060001916905560208201518160010160006101000a81548160ff02191690831515021790555060408201518160010160016101000a81548173ffffffffffffffffffffffffffffffffffffffff021916908373ffffffffffffffffffffffffffffffffffffffff16021790555060608201518160020160006101000a81548173ffffffffffffffffffffffffffffffffffffffff021916908373ffffffffffffffffffffffffffffffffffffffff16021790555060808201518160020160146101000a81548160ff02191690831515021790555060a08201518160020160156101000a81548160ff02191690831515021790555060c08201518160020160166101000a81548160ff02191690831515021790555060e082015181600301559050508573ffffffffffffffffffffffffffffffffffffffff163373ffffffffffffffffffffffffffffffffffffffff167f8be643bbfb5842c0212511a33bab5b92c611f33693aa28e084d6b48b3317bf368760405180826000191660001916815260200191505060405180910390a36001925050509392505050565b60008173ffffffffffffffffffffffffffffffffffffffff16319050919050565b6000809054906101000a900473ffffffffffffffffffffffffffffffffffffffff1673ffffffffffffffffffffffffffffffffffffffff163373ffffffffffffffffffffffffffffffffffffffff161415156113b057600080fd5b6000809054906101000a900473ffffffffffffffffffffffffffffffffffffffff1673ffffffffffffffffffffffffffffffffffffffff16ff5b600080823373ffffffffffffffffffffffffffffffffffffffff166003600083815260200190815260200160002060010160019054906101000a900473ffffffffffffffffffffffffffffffffffffffff1673ffffffffffffffffffffffffffffffffffffffff1614806114bf57503373ffffffffffffffffffffffffffffffffffffffff166003600083815260200190815260200160002060020160009054906101000a900473ffffffffffffffffffffffffffffffffffffffff1673ffffffffffffffffffffffffffffffffffffffff16145b15156114ca57600080fd5b83600115156003600083815260200190815260200160002060020160149054906101000a900460ff16151514151561150157600080fd5b33925060036000868152602001908152602001600020600301548614151561152857600080fd5b8273ffffffffffffffffffffffffffffffffffffffff166003600087815260200190815260200160002060010160019054906101000a900473ffffffffffffffffffffffffffffffffffffffff1673ffffffffffffffffffffffffffffffffffffffff1614156116e3576115db600260008573ffffffffffffffffffffffffffffffffffffffff1673ffffffffffffffffffffffffffffffffffffffff16815260200190815260200160002054876118a8565b600260008573ffffffffffffffffffffffffffffffffffffffff1673ffffffffffffffffffffffffffffffffffffffff1681526020019081526020016000208190555061163f8373ffffffffffffffffffffffffffffffffffffffff1631876118c4565b5061164a8387611a9a565b60016003600087815260200190815260200160002060020160156101000a81548160ff0219169083151502179055503073ffffffffffffffffffffffffffffffffffffffff168373ffffffffffffffffffffffffffffffffffffffff167fddf252ad1be2c89b69c2b068fc378daa952ba7f163c4a11628f55a4df523b3ef886040518082815260200191505060405180910390a361189b565b8273ffffffffffffffffffffffffffffffffffffffff166003600087815260200190815260200160002060020160009054906101000a900473ffffffffffffffffffffffffffffffffffffffff1673ffffffffffffffffffffffffffffffffffffffff16141561189a57611796600260008573ffffffffffffffffffffffffffffffffffffffff1673ffffffffffffffffffffffffffffffffffffffff16815260200190815260200160002054876118a8565b600260008573ffffffffffffffffffffffffffffffffffffffff1673ffffffffffffffffffffffffffffffffffffffff168152602001908152602001600020819055506117fa8373ffffffffffffffffffffffffffffffffffffffff1631876118c4565b506118058387611a9a565b60016003600087815260200190815260200160002060020160166101000a81548160ff0219169083151502179055503073ffffffffffffffffffffffffffffffffffffffff168373ffffffffffffffffffffffffffffffffffffffff167fddf252ad1be2c89b69c2b068fc378daa952ba7f163c4a11628f55a4df523b3ef886040518082815260200191505060405180910390a35b5b6001935050505092915050565b600081830190508281101515156118bb57fe5b80905092915050565b60008282111515156118d257fe5b818303905092915050565b6000600115156003600085815260200190815260200160002060010160009054906101000a900460ff16151514151561191557600080fd5b6003600084815260200190815260200160002060020160009054906101000a900473ffffffffffffffffffffffffffffffffffffffff16905060006003600085815260200190815260200160002060020160146101000a81548160ff0219169083151502179055506119c6600260003073ffffffffffffffffffffffffffffffffffffffff1673ffffffffffffffffffffffffffffffffffffffff16815260200190815260200160002054836118c4565b600260003073ffffffffffffffffffffffffffffffffffffffff1673ffffffffffffffffffffffffffffffffffffffff16815260200190815260200160002081905550611a52600260008373ffffffffffffffffffffffffffffffffffffffff1673ffffffffffffffffffffffffffffffffffffffff16815260200190815260200160002054836118a8565b600260008373ffffffffffffffffffffffffffffffffffffffff1673ffffffffffffffffffffffffffffffffffffffff16815260200190815260200160002081905550505050565b611ae3600260003073ffffffffffffffffffffffffffffffffffffffff1673ffffffffffffffffffffffffffffffffffffffff16815260200190815260200160002054826118a8565b600260003073ffffffffffffffffffffffffffffffffffffffff1673ffffffffffffffffffffffffffffffffffffffff16815260200190815260200160002081905550611b6f600260008473ffffffffffffffffffffffffffffffffffffffff1673ffffffffffffffffffffffffffffffffffffffff16815260200190815260200160002054826118c4565b600260008473ffffffffffffffffffffffffffffffffffffffff1673ffffffffffffffffffffffffffffffffffffffff1681526020019081526020016000208190555050505600a165627a7a7230582058729632f1faa19d3d2093200f040c289758a68056e6469c57e40df254b60bec0029",
  "source": "pragma solidity ^0.4.17;\n\ncontract Escrow {\n    address admin;\n    uint numOfJobs = 0;\n    \n    struct Job {\n        bytes32 title;\n        bool isCompleted;\n        address owner;\n        address executer;\n        bool doesExist;\n        bool isDepositedOwner;\n        bool isDepositedExecuter;\n        uint256 budget;\n    }\n    mapping(address => uint) public balanceOf;\n    mapping(uint => Job) public jobs;\n    \n    event Awarded(address indexed _from, address indexed _to, bytes32 _title);\n    event Transfer(address indexed _from, address indexed _to, uint256 _value);\n    event EscrowCompleted(address indexed _owner, address indexed _executer, uint256 _jobId);\n    event JobComplete(address indexed _owner, bytes32 _title);\n    event Cancel(address indexed _from, uint256 _jobId);\n    \n    function Escrow() public {\n        admin = msg.sender;\n    }\n    \n    modifier onlyAdmin() {\n        require(msg.sender == admin);\n        _;\n    }\n    \n    modifier onlyContractParties(uint256 _jobId) {\n        require(jobs[_jobId].owner == msg.sender || jobs[_jobId].executer == msg.sender);\n        _;\n    }\n    \n    modifier onlyExistingContract (uint256 _id) {\n        require(jobs[_id].doesExist == true);\n        _;\n    }\n    \n    function add(uint256 a, uint256 b) internal pure returns (uint256 c) {\n        c = a + b;\n        assert(c >= a);\n        return c;\n    }\n    \n    function sub(uint256 a, uint256 b) internal pure returns (uint256) {\n        assert(b <= a);\n        return a - b;\n    }\n    \n    function createContract(address _awardee, bytes32 _title, uint256 _contractValue) public returns(bool success) {\n        address creator = msg.sender;\n        require(_awardee != msg.sender);\n        require(_contractValue <= creator.balance && _contractValue <= _awardee.balance);\n        uint id = numOfJobs += 1;\n        jobs[id] = Job(_title, false, msg.sender, _awardee, true, false, false, _contractValue);\n        emit Awarded(msg.sender, _awardee, _title);\n        return true;\n    }\n\n    function accountBalance(address _owner) public view returns (uint256) {\n        return _owner.balance;\n    }\n    \n    function _depositFund(address _spender, uint256 _value) internal {\n        balanceOf[this] = add(balanceOf[this], _value);\n        balanceOf[_spender] = sub(balanceOf[_spender], _value);\n    }\n\n    // Both parties deposit funds before job begins\n    function deposit(uint256 _value, uint _jobId) public onlyContractParties\n    (_jobId) onlyExistingContract(_jobId) returns (bool) {\n        address spender = msg.sender;\n        require(_value == jobs[_jobId].budget);\n        if(jobs[_jobId].owner == spender) {\n            balanceOf[spender] = add(balanceOf[spender], _value);\n            sub(spender.balance, _value);\n            _depositFund(spender, _value);\n            jobs[_jobId].isDepositedOwner = true;\n            emit Transfer(spender, this, _value);\n        }\n        else if (jobs[_jobId].executer == spender) {\n            balanceOf[spender] = add(balanceOf[spender], _value);\n            sub(spender.balance, _value);\n            _depositFund(spender, _value);\n            jobs[_jobId].isDepositedExecuter = true;\n            emit Transfer(spender, this, _value);\n        }\n        return true;\n    }\n    // Escrow job owner confirms job is completed\n    function confirmJobCompleted(uint _jobId) public onlyExistingContract(_jobId) returns (bool success) {\n        require(msg.sender == jobs[_jobId].owner);\n        jobs[_jobId].isCompleted = true;\n        emit JobComplete(msg.sender, jobs[_jobId].title);\n        return true;\n        \n    }\n    function _completePayment(uint256 _jobId, uint256 _funds) private {\n        require(jobs[_jobId].isCompleted == true);\n        address executer = jobs[_jobId].executer;\n        jobs[_jobId].doesExist = false;\n        balanceOf[this] = sub(balanceOf[this], _funds);\n        balanceOf[executer] = add(balanceOf[executer], _funds);\n    }\n    \n    function completePayment(uint256 _jobId) public returns (bool success) {\n        require(msg.sender == jobs[_jobId].owner);\n        uint256 funds = balanceOf[this];\n        _completePayment(_jobId, funds);\n        emit Transfer(this, jobs[_jobId].executer, funds);\n        return true;\n    }\n    \n    function cancelContract(uint256 _jobId) public onlyContractParties(_jobId) \n    onlyExistingContract(_jobId) returns (bool success) {\n        bool owner = jobs[_jobId].isDepositedOwner;\n        bool executer = jobs[_jobId].isDepositedExecuter;\n        if (owner == true && executer == true) {\n            uint halvedBalance = balanceOf[this]/2;\n            balanceOf[jobs[_jobId].owner] = add(balanceOf[jobs[_jobId].owner],halvedBalance);\n            balanceOf[jobs[_jobId].executer] = add(balanceOf[jobs[_jobId].executer],halvedBalance);\n            balanceOf[this] = sub(balanceOf[this], balanceOf[this]);\n        } else if (owner == true && executer == false) {\n            balanceOf[jobs[_jobId].owner] = add(balanceOf[jobs[_jobId].owner],balanceOf[this]);\n            balanceOf[this] = sub(balanceOf[this], balanceOf[this]);\n\n        } else if (owner == false && executer == true) {\n            balanceOf[jobs[_jobId].executer] = add(balanceOf[jobs[_jobId].executer],balanceOf[this]);\n            balanceOf[this] = sub(balanceOf[this], balanceOf[this]);\n        }\n        jobs[_jobId].doesExist = false;\n        emit Cancel(msg.sender, _jobId);\n        return true;\n    }\n    \n    function endEscrowTransaction() public onlyAdmin {\n        selfdestruct(admin);\n    }\n}\n",
  "sourcePath": "/Users/andeladeveloper/escrow-contract-eth/contracts/escrow.sol",
  "compiler": {
    "name": "solc",
    "version": "0.4.21+commit.dfe3193c.Emscripten.clang"
  },
  "schemaVersion": "2.0.0",
  "updatedAt": "2018-05-14T15:07:20.787Z"
}