{
  "contractName": "Escrow",
  "abi": [
    {
      "constant": true,
      "inputs": [
        {
          "name": "",
          "type": "uint256"
        }
      ],
      "name": "jobs",
      "outputs": [
        {
          "name": "title",
          "type": "string"
        },
        {
          "name": "isCompleted",
          "type": "bool"
        },
        {
          "name": "owner",
          "type": "address"
        },
        {
          "name": "executer",
          "type": "address"
        },
        {
          "name": "doesExist",
          "type": "bool"
        },
        {
          "name": "isDepositedOwner",
          "type": "bool"
        },
        {
          "name": "isDepositedExecuter",
          "type": "bool"
        }
      ],
      "payable": false,
      "stateMutability": "view",
      "type": "function"
    },
    {
      "constant": true,
      "inputs": [
        {
          "name": "",
          "type": "address"
        }
      ],
      "name": "balanceOf",
      "outputs": [
        {
          "name": "",
          "type": "uint256"
        }
      ],
      "payable": false,
      "stateMutability": "view",
      "type": "function"
    },
    {
      "inputs": [],
      "payable": false,
      "stateMutability": "nonpayable",
      "type": "constructor"
    },
    {
      "anonymous": false,
      "inputs": [
        {
          "indexed": true,
          "name": "_from",
          "type": "address"
        },
        {
          "indexed": true,
          "name": "_to",
          "type": "address"
        },
        {
          "indexed": false,
          "name": "_title",
          "type": "string"
        }
      ],
      "name": "Awarded",
      "type": "event"
    },
    {
      "anonymous": false,
      "inputs": [
        {
          "indexed": true,
          "name": "_from",
          "type": "address"
        },
        {
          "indexed": true,
          "name": "_to",
          "type": "address"
        },
        {
          "indexed": false,
          "name": "_value",
          "type": "uint256"
        }
      ],
      "name": "Transfer",
      "type": "event"
    },
    {
      "anonymous": false,
      "inputs": [
        {
          "indexed": true,
          "name": "_owner",
          "type": "address"
        },
        {
          "indexed": true,
          "name": "_executer",
          "type": "address"
        },
        {
          "indexed": false,
          "name": "_jobId",
          "type": "uint256"
        }
      ],
      "name": "ContractCompleted",
      "type": "event"
    },
    {
      "anonymous": false,
      "inputs": [
        {
          "indexed": true,
          "name": "_from",
          "type": "address"
        },
        {
          "indexed": false,
          "name": "_jobId",
          "type": "uint256"
        }
      ],
      "name": "Cancel",
      "type": "event"
    },
    {
      "constant": false,
      "inputs": [
        {
          "name": "_awardee",
          "type": "address"
        },
        {
          "name": "_title",
          "type": "string"
        },
        {
          "name": "_contractValue",
          "type": "uint256"
        }
      ],
      "name": "createContract",
      "outputs": [
        {
          "name": "success",
          "type": "bool"
        }
      ],
      "payable": false,
      "stateMutability": "nonpayable",
      "type": "function"
    },
    {
      "constant": false,
      "inputs": [
        {
          "name": "_value",
          "type": "uint256"
        },
        {
          "name": "_jobId",
          "type": "uint256"
        }
      ],
      "name": "deposit",
      "outputs": [
        {
          "name": "",
          "type": "bool"
        }
      ],
      "payable": false,
      "stateMutability": "nonpayable",
      "type": "function"
    },
    {
      "constant": false,
      "inputs": [
        {
          "name": "_jobId",
          "type": "uint256"
        }
      ],
      "name": "confirmJobCompleted",
      "outputs": [
        {
          "name": "success",
          "type": "bool"
        }
      ],
      "payable": false,
      "stateMutability": "nonpayable",
      "type": "function"
    },
    {
      "constant": false,
      "inputs": [
        {
          "name": "_jobId",
          "type": "uint256"
        }
      ],
      "name": "completePayment",
      "outputs": [
        {
          "name": "success",
          "type": "bool"
        }
      ],
      "payable": false,
      "stateMutability": "nonpayable",
      "type": "function"
    },
    {
      "constant": false,
      "inputs": [
        {
          "name": "_jobId",
          "type": "uint256"
        }
      ],
      "name": "cancelContract",
      "outputs": [
        {
          "name": "",
          "type": "bool"
        }
      ],
      "payable": false,
      "stateMutability": "nonpayable",
      "type": "function"
    },
    {
      "constant": false,
      "inputs": [],
      "name": "endEscrowTransaction",
      "outputs": [],
      "payable": false,
      "stateMutability": "nonpayable",
      "type": "function"
    }
  ],
  "bytecode": "0x60606040526000600155341561001457600080fd5b336000806101000a81548173ffffffffffffffffffffffffffffffffffffffff021916908373ffffffffffffffffffffffffffffffffffffffff160217905550611c46806100636000396000f30060606040526004361061008e576000357c0100000000000000000000000000000000000000000000000000000000900463ffffffff168063180aedf31461009357806328047450146101c15780634f01c6f2146101fc5780634ff34abe1461023757806370a08231146102725780639ce5b6ca146102bf578063d871f0341461035c578063e2bbb15814610371575b600080fd5b341561009e57600080fd5b6100b460048080359060200190919050506103b5565b6040518080602001881515151581526020018773ffffffffffffffffffffffffffffffffffffffff1673ffffffffffffffffffffffffffffffffffffffff1681526020018673ffffffffffffffffffffffffffffffffffffffff1673ffffffffffffffffffffffffffffffffffffffff168152602001851515151581526020018415151515815260200183151515158152602001828103825289818151815260200191508051906020019080838360005b83811015610180578082015181840152602081019050610165565b50505050905090810190601f1680156101ad5780820380516001836020036101000a031916815260200191505b509850505050505050505060405180910390f35b34156101cc57600080fd5b6101e26004808035906020019091905050610503565b604051808215151515815260200191505060405180910390f35b341561020757600080fd5b61021d6004808035906020019091905050610e64565b604051808215151515815260200191505060405180910390f35b341561024257600080fd5b6102586004808035906020019091905050610f83565b604051808215151515815260200191505060405180910390f35b341561027d57600080fd5b6102a9600480803573ffffffffffffffffffffffffffffffffffffffff16906020019091905050611065565b6040518082815260200191505060405180910390f35b34156102ca57600080fd5b610342600480803573ffffffffffffffffffffffffffffffffffffffff1690602001909190803590602001908201803590602001908080601f0160208091040260200160405190810160405280939291908181526020018383808284378201915050505050509190803590602001909190505061107d565b604051808215151515815260200191505060405180910390f35b341561036757600080fd5b61036f61139e565b005b341561037c57600080fd5b61039b6004808035906020019091908035906020019091905050611433565b604051808215151515815260200191505060405180910390f35b6003602052806000526040600020600091509050806000018054600181600116156101000203166002900480601f0160208091040260200160405190810160405280929190818152602001828054600181600116156101000203166002900480156104615780601f1061043657610100808354040283529160200191610461565b820191906000526020600020905b81548152906001019060200180831161044457829003601f168201915b5050505050908060010160009054906101000a900460ff16908060010160019054906101000a900473ffffffffffffffffffffffffffffffffffffffff16908060020160009054906101000a900473ffffffffffffffffffffffffffffffffffffffff16908060020160149054906101000a900460ff16908060020160159054906101000a900460ff16908060020160169054906101000a900460ff16905087565b600080600080843373ffffffffffffffffffffffffffffffffffffffff166003600083815260200190815260200160002060010160019054906101000a900473ffffffffffffffffffffffffffffffffffffffff1673ffffffffffffffffffffffffffffffffffffffff1614806105db57503373ffffffffffffffffffffffffffffffffffffffff166003600083815260200190815260200160002060020160009054906101000a900473ffffffffffffffffffffffffffffffffffffffff1673ffffffffffffffffffffffffffffffffffffffff16145b15156105e657600080fd5b85600115156003600083815260200190815260200160002060020160149054906101000a900460ff16151514151561061d57600080fd5b6003600088815260200190815260200160002060020160159054906101000a900460ff1694506003600088815260200190815260200160002060020160169054906101000a900460ff16935060011515851515148015610681575060011515841515145b156109935760028060003073ffffffffffffffffffffffffffffffffffffffff1673ffffffffffffffffffffffffffffffffffffffff168152602001908152602001600020548115156106d057fe5b04925061075260026000600360008b815260200190815260200160002060010160019054906101000a900473ffffffffffffffffffffffffffffffffffffffff1673ffffffffffffffffffffffffffffffffffffffff1673ffffffffffffffffffffffffffffffffffffffff1681526020019081526020016000205484611771565b60026000600360008b815260200190815260200160002060010160019054906101000a900473ffffffffffffffffffffffffffffffffffffffff1673ffffffffffffffffffffffffffffffffffffffff1673ffffffffffffffffffffffffffffffffffffffff1681526020019081526020016000208190555061084a60026000600360008b815260200190815260200160002060020160009054906101000a900473ffffffffffffffffffffffffffffffffffffffff1673ffffffffffffffffffffffffffffffffffffffff1673ffffffffffffffffffffffffffffffffffffffff1681526020019081526020016000205484611771565b60026000600360008b815260200190815260200160002060020160009054906101000a900473ffffffffffffffffffffffffffffffffffffffff1673ffffffffffffffffffffffffffffffffffffffff1673ffffffffffffffffffffffffffffffffffffffff1681526020019081526020016000208190555061094b600260003073ffffffffffffffffffffffffffffffffffffffff1673ffffffffffffffffffffffffffffffffffffffff16815260200190815260200160002054600260003073ffffffffffffffffffffffffffffffffffffffff1673ffffffffffffffffffffffffffffffffffffffff1681526020019081526020016000205461178d565b600260003073ffffffffffffffffffffffffffffffffffffffff1673ffffffffffffffffffffffffffffffffffffffff16815260200190815260200160002081905550610dd9565b600115158515151480156109ab575060001515841515145b15610bb757610a6e60026000600360008b815260200190815260200160002060010160019054906101000a900473ffffffffffffffffffffffffffffffffffffffff1673ffffffffffffffffffffffffffffffffffffffff1673ffffffffffffffffffffffffffffffffffffffff16815260200190815260200160002054600260003073ffffffffffffffffffffffffffffffffffffffff1673ffffffffffffffffffffffffffffffffffffffff16815260200190815260200160002054611771565b60026000600360008b815260200190815260200160002060010160019054906101000a900473ffffffffffffffffffffffffffffffffffffffff1673ffffffffffffffffffffffffffffffffffffffff1673ffffffffffffffffffffffffffffffffffffffff16815260200190815260200160002081905550610b6f600260003073ffffffffffffffffffffffffffffffffffffffff1673ffffffffffffffffffffffffffffffffffffffff16815260200190815260200160002054600260003073ffffffffffffffffffffffffffffffffffffffff1673ffffffffffffffffffffffffffffffffffffffff1681526020019081526020016000205461178d565b600260003073ffffffffffffffffffffffffffffffffffffffff1673ffffffffffffffffffffffffffffffffffffffff16815260200190815260200160002081905550610dd8565b60001515851515148015610bcf575060011515841515145b15610dd757610c9260026000600360008b815260200190815260200160002060020160009054906101000a900473ffffffffffffffffffffffffffffffffffffffff1673ffffffffffffffffffffffffffffffffffffffff1673ffffffffffffffffffffffffffffffffffffffff16815260200190815260200160002054600260003073ffffffffffffffffffffffffffffffffffffffff1673ffffffffffffffffffffffffffffffffffffffff16815260200190815260200160002054611771565b60026000600360008b815260200190815260200160002060020160009054906101000a900473ffffffffffffffffffffffffffffffffffffffff1673ffffffffffffffffffffffffffffffffffffffff1673ffffffffffffffffffffffffffffffffffffffff16815260200190815260200160002081905550610d93600260003073ffffffffffffffffffffffffffffffffffffffff1673ffffffffffffffffffffffffffffffffffffffff16815260200190815260200160002054600260003073ffffffffffffffffffffffffffffffffffffffff1673ffffffffffffffffffffffffffffffffffffffff1681526020019081526020016000205461178d565b600260003073ffffffffffffffffffffffffffffffffffffffff1673ffffffffffffffffffffffffffffffffffffffff168152602001908152602001600020819055505b5b5b60006003600089815260200190815260200160002060020160146101000a81548160ff0219169083151502179055503373ffffffffffffffffffffffffffffffffffffffff167f27f83af92b39768b17fe0c8d6922452702717efb8626d97e7a754e0b27d4f6d2886040518082815260200191505060405180910390a2600195505050505050919050565b60006003600083815260200190815260200160002060010160019054906101000a900473ffffffffffffffffffffffffffffffffffffffff1673ffffffffffffffffffffffffffffffffffffffff163373ffffffffffffffffffffffffffffffffffffffff16141515610ed657600080fd5b610edf826117a6565b6003600083815260200190815260200160002060020160009054906101000a900473ffffffffffffffffffffffffffffffffffffffff1673ffffffffffffffffffffffffffffffffffffffff163373ffffffffffffffffffffffffffffffffffffffff167f07da7d5bb0a8fdf90738dd98fba65e10ff8d722d2fbb0bcb7bc6c591455386dd846040518082815260200191505060405180910390a360019050919050565b600081600115156003600083815260200190815260200160002060020160149054906101000a900460ff161515141515610fbc57600080fd5b6003600084815260200190815260200160002060010160019054906101000a900473ffffffffffffffffffffffffffffffffffffffff1673ffffffffffffffffffffffffffffffffffffffff163373ffffffffffffffffffffffffffffffffffffffff1614151561102c57600080fd5b60016003600085815260200190815260200160002060010160006101000a81548160ff0219169083151502179055506001915050919050565b60026020528060005260406000206000915090505481565b60008060003391508573ffffffffffffffffffffffffffffffffffffffff163373ffffffffffffffffffffffffffffffffffffffff16141515156110c057600080fd5b838273ffffffffffffffffffffffffffffffffffffffff1631101580156110fe5750838673ffffffffffffffffffffffffffffffffffffffff163110155b151561110957600080fd5b600180600082825401925050819055905060e0604051908101604052808681526020016000151581526020013373ffffffffffffffffffffffffffffffffffffffff1681526020018773ffffffffffffffffffffffffffffffffffffffff168152602001600115158152602001600015158152602001600015158152506003600083815260200190815260200160002060008201518160000190805190602001906111b5929190611b75565b5060208201518160010160006101000a81548160ff02191690831515021790555060408201518160010160016101000a81548173ffffffffffffffffffffffffffffffffffffffff021916908373ffffffffffffffffffffffffffffffffffffffff16021790555060608201518160020160006101000a81548173ffffffffffffffffffffffffffffffffffffffff021916908373ffffffffffffffffffffffffffffffffffffffff16021790555060808201518160020160146101000a81548160ff02191690831515021790555060a08201518160020160156101000a81548160ff02191690831515021790555060c08201518160020160166101000a81548160ff0219169083151502179055509050508573ffffffffffffffffffffffffffffffffffffffff163373ffffffffffffffffffffffffffffffffffffffff167f1a098fbeeb33d0e226f5a9a573bf377fe4586cf905a1255ef4e0d612e9db85bd876040518080602001828103825283818151815260200191508051906020019080838360005b8381101561135757808201518184015260208101905061133c565b50505050905090810190601f1680156113845780820380516001836020036101000a031916815260200191505b509250505060405180910390a36001925050509392505050565b6000809054906101000a900473ffffffffffffffffffffffffffffffffffffffff1673ffffffffffffffffffffffffffffffffffffffff163373ffffffffffffffffffffffffffffffffffffffff161415156113f957600080fd5b6000809054906101000a900473ffffffffffffffffffffffffffffffffffffffff1673ffffffffffffffffffffffffffffffffffffffff16ff5b600080823373ffffffffffffffffffffffffffffffffffffffff166003600083815260200190815260200160002060010160019054906101000a900473ffffffffffffffffffffffffffffffffffffffff1673ffffffffffffffffffffffffffffffffffffffff16148061150857503373ffffffffffffffffffffffffffffffffffffffff166003600083815260200190815260200160002060020160009054906101000a900473ffffffffffffffffffffffffffffffffffffffff1673ffffffffffffffffffffffffffffffffffffffff16145b151561151357600080fd5b83600115156003600083815260200190815260200160002060020160149054906101000a900460ff16151514151561154a57600080fd5b3392508273ffffffffffffffffffffffffffffffffffffffff166003600087815260200190815260200160002060010160019054906101000a900473ffffffffffffffffffffffffffffffffffffffff1673ffffffffffffffffffffffffffffffffffffffff16141561165a576115c18387611a0b565b60016003600087815260200190815260200160002060020160156101000a81548160ff0219169083151502179055503073ffffffffffffffffffffffffffffffffffffffff168373ffffffffffffffffffffffffffffffffffffffff167fddf252ad1be2c89b69c2b068fc378daa952ba7f163c4a11628f55a4df523b3ef886040518082815260200191505060405180910390a3611764565b8273ffffffffffffffffffffffffffffffffffffffff166003600087815260200190815260200160002060020160009054906101000a900473ffffffffffffffffffffffffffffffffffffffff1673ffffffffffffffffffffffffffffffffffffffff161415611763576116ce8387611a0b565b60016003600087815260200190815260200160002060020160166101000a81548160ff0219169083151502179055503073ffffffffffffffffffffffffffffffffffffffff168373ffffffffffffffffffffffffffffffffffffffff167fddf252ad1be2c89b69c2b068fc378daa952ba7f163c4a11628f55a4df523b3ef886040518082815260200191505060405180910390a35b5b6001935050505092915050565b6000818301905082811015151561178457fe5b80905092915050565b600082821115151561179b57fe5b818303905092915050565b600080600115156003600085815260200190815260200160002060010160009054906101000a900460ff1615151415156117df57600080fd5b600260003073ffffffffffffffffffffffffffffffffffffffff1673ffffffffffffffffffffffffffffffffffffffff1681526020019081526020016000205491506003600084815260200190815260200160002060020160009054906101000a900473ffffffffffffffffffffffffffffffffffffffff16905060006003600085815260200190815260200160002060020160146101000a81548160ff0219169083151502179055506118d2600260003073ffffffffffffffffffffffffffffffffffffffff1673ffffffffffffffffffffffffffffffffffffffff168152602001908152602001600020548361178d565b600260003073ffffffffffffffffffffffffffffffffffffffff1673ffffffffffffffffffffffffffffffffffffffff1681526020019081526020016000208190555061195e600260008373ffffffffffffffffffffffffffffffffffffffff1673ffffffffffffffffffffffffffffffffffffffff1681526020019081526020016000205483611771565b600260008373ffffffffffffffffffffffffffffffffffffffff1673ffffffffffffffffffffffffffffffffffffffff168152602001908152602001600020819055508073ffffffffffffffffffffffffffffffffffffffff163073ffffffffffffffffffffffffffffffffffffffff167fddf252ad1be2c89b69c2b068fc378daa952ba7f163c4a11628f55a4df523b3ef846040518082815260200191505060405180910390a3505050565b80600260008473ffffffffffffffffffffffffffffffffffffffff1673ffffffffffffffffffffffffffffffffffffffff1681526020019081526020016000205410151515611a5957600080fd5b611aa2600260003073ffffffffffffffffffffffffffffffffffffffff1673ffffffffffffffffffffffffffffffffffffffff1681526020019081526020016000205482611771565b600260003073ffffffffffffffffffffffffffffffffffffffff1673ffffffffffffffffffffffffffffffffffffffff16815260200190815260200160002081905550611b2e600260008473ffffffffffffffffffffffffffffffffffffffff1673ffffffffffffffffffffffffffffffffffffffff168152602001908152602001600020548261178d565b600260008473ffffffffffffffffffffffffffffffffffffffff1673ffffffffffffffffffffffffffffffffffffffff168152602001908152602001600020819055505050565b828054600181600116156101000203166002900490600052602060002090601f016020900481019282601f10611bb657805160ff1916838001178555611be4565b82800160010185558215611be4579182015b82811115611be3578251825591602001919060010190611bc8565b5b509050611bf19190611bf5565b5090565b611c1791905b80821115611c13576000816000905550600101611bfb565b5090565b905600a165627a7a72305820e3797b29739b682b7525af42acd2d82f9fae32f987edebeffb7d55b20fc20f960029",
  "source": "pragma solidity ^0.4.17;\n\ncontract Escrow {\n    address admin;\n    uint numOfJobs = 0;\n    \n    struct Job {\n        string title;\n        bool isCompleted;\n        address owner;\n        address executer;\n        bool doesExist;\n        bool isDepositedOwner;\n        bool isDepositedExecuter;\n    }\n    mapping(address => uint) public balanceOf;\n    mapping(uint => Job) public jobs;\n    \n    event Awarded(address indexed _from, address indexed _to, string _title);\n    event Transfer(address indexed _from, address indexed _to, uint256 _value);\n    event ContractCompleted(address indexed _owner, address indexed _executer, uint256 _jobId);\n    event Cancel(address indexed _from, uint256 _jobId);\n    \n    function Escrow() public {\n        admin = msg.sender;\n    }\n    \n    modifier onlyAdmin() {\n        require(msg.sender == admin);\n        _;\n    }\n    \n    modifier onlyContractParties(uint256 _jobId) {\n        require(jobs[_jobId].owner == msg.sender || jobs[_jobId].executer == msg.sender);\n        _;\n    }\n    \n    modifier onlyExistingContract (uint256 _id) {\n        require(jobs[_id].doesExist == true);\n        _;\n    }\n    \n    function add(uint256 a, uint256 b) internal pure returns (uint256 c) {\n        c = a + b;\n        assert(c >= a);\n        return c;\n    }\n    \n    function sub(uint256 a, uint256 b) internal pure returns (uint256) {\n        assert(b <= a);\n        return a - b;\n    }\n    \n    function createContract(address _awardee, string _title, uint _contractValue) public returns(bool success) {\n        address creator = msg.sender;\n        require(msg.sender != _awardee);\n        require(creator.balance >= _contractValue && _awardee.balance >= _contractValue);\n        uint id = numOfJobs += 1;\n        jobs[id] = Job(_title, false, msg.sender, _awardee, true, false, false);\n        emit Awarded(msg.sender, _awardee, _title);\n        return true;\n    }\n    \n    function _depositFund(address _spender, uint256 _value) internal {\n        require(balanceOf[_spender] >= _value);\n        balanceOf[this] = add(balanceOf[this], _value);\n        balanceOf[_spender] = sub(balanceOf[_spender], _value);\n    }\n\n    // Both parties deposit funds before job begins\n    function deposit(uint256 _value, uint _jobId) public onlyContractParties\n    (_jobId) onlyExistingContract(_jobId) returns (bool) {\n        address spender = msg.sender;\n        if(jobs[_jobId].owner == spender) {\n            _depositFund(spender, _value);\n            jobs[_jobId].isDepositedOwner = true;\n            emit Transfer(spender, this, _value);\n        }\n        else if (jobs[_jobId].executer == spender) {\n            _depositFund(spender, _value);\n            jobs[_jobId].isDepositedExecuter = true;\n            emit Transfer(spender, this, _value);\n        }\n        return true;\n    }\n    // Escrow job owner confirms job is completed\n    function confirmJobCompleted(uint _jobId) public onlyExistingContract(_jobId) returns (bool success) {\n        require(msg.sender == jobs[_jobId].owner);\n        jobs[_jobId].isCompleted = true;\n        return true;\n        \n    }\n    function _completePayment(uint256 _jobId) private {\n        require(jobs[_jobId].isCompleted == true);\n        uint funds = balanceOf[this];\n        address executer = jobs[_jobId].executer;\n        jobs[_jobId].doesExist = false;\n        balanceOf[this] = sub(balanceOf[this], funds);\n        balanceOf[executer] = add(balanceOf[executer], funds);\n        emit Transfer(this, executer, funds);\n    }\n    \n    function completePayment(uint256 _jobId) public returns (bool success) {\n        require(msg.sender == jobs[_jobId].owner);\n        _completePayment(_jobId);\n        emit ContractCompleted(msg.sender, jobs[_jobId].executer, _jobId);\n        return true;\n    }\n    \n    function cancelContract(uint256 _jobId) public onlyContractParties(_jobId) \n    onlyExistingContract(_jobId) returns (bool) {\n        bool owner = jobs[_jobId].isDepositedOwner;\n        bool executer = jobs[_jobId].isDepositedExecuter;\n        if (owner == true && executer == true) {\n            uint halvedBalance = balanceOf[this]/2;\n            balanceOf[jobs[_jobId].owner] = add(balanceOf[jobs[_jobId].owner],halvedBalance);\n            balanceOf[jobs[_jobId].executer] = add(balanceOf[jobs[_jobId].executer],halvedBalance);\n            balanceOf[this] = sub(balanceOf[this], balanceOf[this]);\n        } else if (owner == true && executer == false) {\n            balanceOf[jobs[_jobId].owner] = add(balanceOf[jobs[_jobId].owner],balanceOf[this]);\n            balanceOf[this] = sub(balanceOf[this], balanceOf[this]);\n\n        } else if (owner == false && executer == true) {\n            balanceOf[jobs[_jobId].executer] = add(balanceOf[jobs[_jobId].executer],balanceOf[this]);\n            balanceOf[this] = sub(balanceOf[this], balanceOf[this]);\n        }\n        jobs[_jobId].doesExist = false;\n        emit Cancel(msg.sender, _jobId);\n        return true;\n    }\n    \n    function endEscrowTransaction() public onlyAdmin {\n        selfdestruct(admin);\n    }\n}\n",
  "sourcePath": "/Users/andeladeveloper/escrow-contract-eth/contracts/escrow.sol",
  "compiler": {
    "name": "solc",
    "version": "0.4.21+commit.dfe3193c.Emscripten.clang"
  },
  "schemaVersion": "2.0.0",
  "updatedAt": "2018-05-02T14:46:44.300Z"
}